:020000040800F2
:10000000E84E0020890100080B1D0008DF190008D8
:10001000091D00088F0200081525000800000000D7
:100020000000000000000000000000007121000836
:100030009D02000800000000F91D000825220008AC
:10004000A3010008A3010008A3010008A301000800
:10005000A3010008A3010008A3010008A3010008F0
:10006000A3010008A3010008A3010008A3010008E0
:1000700091020008A3010008A3010008A3010008E1
:10008000A3010008A3010008A3010008A3010008C0
:10009000A3010008A3010008A3010008A3010008B0
:1000A000A3010008A3010008A3010008A3010008A0
:1000B000A301000889220008A3010008A301000889
:1000C000A3010008A3010008A3010008451E0008C1
:1000D000A3010008A3010008A3010008A301000870
:1000E000A3010008A3010008A301000800F002F822
:1000F00000F03AF80AA090E8000C82448344AAF188
:100100000107DA4501D100F02FF8AFF2090EBAE885
:100110000F0013F0010F18BFFB1A43F0010318473B
:10012000302A0000502A0000103A24BF78C878C155
:10013000FAD8520724BF30C830C144BF04680C60ED
:10014000704700000023002400250026103A28BF35
:1001500078C1FBD8520728BF30C148BF0B60704739
:100160001FB51FBD10B510BD00F058F81146FFF7C0
:10017000F7FF02F0F5F900F076F803B4FFF7F2FFAD
:1001800003BC00F07DF8000009488047094800479B
:10019000FEE7FEE7FEE7FEE7FEE7FEE7FEE7FEE737
:1001A000FEE7FEE704480549054A064B7047000094
:1001B00087220008ED000008E8480020E84E0020F3
:1001C000E84A0020E84A00204FF0000200B513463C
:1001D00094469646203922BFA0E80C50A0E80C5067
:1001E000B1F12001BFF4F7AF090728BFA0E80C5018
:1001F00048BF0CC05DF804EB890028BF40F8042B11
:1002000008BF704748BF20F8022B11F0804F18BF7D
:1002100000F8012B7047704770477047754600F033
:100220002BF8AE4605006946534620F00700854688
:1002300018B020B5FFF7B6FFBDE820404FF000062C
:100240004FF000074FF000084FF0000B21F00701BE
:10025000AC46ACE8C009ACE8C009ACE8C009ACE801
:10026000C0098D46704710B50446AFF300802046A4
:10027000BDE81040FFF781BF004870478848002064
:1002800001491820ABBEFEE7260002007047FEE7DA
:10029000014800F065B8000044480020704772B67D
:1002A000FEE7000070B50D460446012211460548E0
:1002B00000F026FA204601F073FF2846BDE87040A2
:1002C00001F09ABF000C014010B590F821100024F5
:1002D000022903D00421816301243DE001680A68FA
:1002E00022F00E020A6001680A6822F001020A6028
:1002F0001A4A0168914201D1012121E0174A1432C2
:10030000914201D110211BE0144A2832914201D1BF
:10031000891515E0114A3C32914201D189140FE050
:100320000E4A5032914202D14FF4803108E00B4A1C
:100330006432914202D14FF4801101E04FF080719C
:10034000064A083A5160012180F82110002180F806
:100350002010416B01B18847204610BD08000240C3
:100360002DE9F05FC16B0C6801680B68D0F840C0E4
:10037000042202FA0CF2494DDFF824A1494E4A4FFB
:10038000DFF828B1DFF828E122422CD05A072AD51D
:100390000A68920603D40A6822F004020A6001681F
:1003A000A94201D1042219E0514501D1402215E0B2
:1003B000B14202D14FF4806210E0B94202D14FF451
:1003C00080420BE0594502D14FF4802206E071458E
:1003D00002D14FF4800201E04FF080622F490839CA
:1003E0004A60C16A3BE04FF0020808FA0CF818EACC
:1003F000040F4FF000094FF0010235D05FEA837817
:1004000032D50B689B0605D40B6823F00A030B60FA
:1004100080F821200168A94201D1022219E051454A
:1004200001D1202215E0B14202D14FF4007210E058
:10043000B94202D14FF400520BE0594502D14FF4BA
:10044000003206E0714502D14FF4001201E04FF096
:100450000072124908394A6080F82090816A0029A8
:100460001AD0BDE8F05F0847082505FA0CF52542CB
:1004700012D01B0710D50B6823F00E030B6090F809
:100480004010C36B02FA01F15960826380F82120A9
:1004900080F82090016BE2E7BDE8F09F0800024081
:1004A0001C0002403000024044000240580002405C
:1004B0006C00024030B528B308C81349142219440F
:1004C000B1FBF2F18900C1631049816302214177D8
:1004D0001A6843F6F0718A43D0E900142143D0E949
:1004E00002452C4321430469214344692143846923
:1004F00021431143196000214163012242770177B2
:10050000084630BD012030BDF8FFFDBF00000240AD
:100510002DE9F84FDFF8B891002409F1040A0AF137
:10052000040B23460F270BF1040EC9E00125A5405B
:100530002A40AA427DD1674ED1F804C0ACEB060830
:10054000B44532D014DCBCF1030F3AD009DCBCF165
:10055000000F2AD0BCF1010F1CD0BCF1020F31D129
:100560001DE0BCF1110F17D0BCF1120F2AD119E018
:10057000B8F5881F19D006DCB8F5803F15D0B8F55E
:10058000801F1FD111E0B8F5001F0ED0B8F5041F71
:1005900018D10AE0CB6815E0CB681B1D12E0CB68D0
:1005A00008330FE0CB680C330CE08B682BB1012BC8
:1005B0004FF0080303D0456104E0042302E0056125
:1005C00000E00023FF2A01D8064601E000F10406FE
:1005D0004FEA840501D9A5F12005D6F8008007FA75
:1005E00005FC28EA0C0803FA05F548EA0508C6F8F0
:1005F00000804D68ED0062D5374DAE6946F00106CA
:10060000AE61AD6924F0030605F001050095334D98
:1006100006EB050CDCF80850A607360F07FA06F8BB
:1006200025EA0805DFF8B880404503D14FF00008FF
:1006300017E044E0DFF8AC80404502D14FF00108FC
:100640000FE0DFF8A480404502D14FF0020808E037
:10065000DFF89880404502D14FF0030801E04FF0E9
:10066000040808FA06F848EA0508CCF808804D683E
:10067000D9F80060ED034D4601D5164300E09643DE
:100680002E604D68DAF80060AD03554601D516437B
:1006900000E096432E604D68DBF80060ED025D4699
:1006A00001D5164300E096432E604D68DEF80060E9
:1006B000AD02754601D5164300E096432E60641CDA
:1006C0000D682A46E5407FF431AFBDE8F88F0000A1
:1006D0000004014000001110001002400000014021
:1006E00000080140000C01400010014000140140CE
:1006F000C26821EA02030A4043EA024101617047ED
:100700000AB1016170470904FBE7000001488068F5
:10071000704700006C000020024881680278114494
:10072000816070476C000020074810B5016841F0F7
:1007300010010160032000F075F80F2000F006F8AA
:1007400000F024F8002010BD0020024070B50D4DCF
:1007500004464FF47A712878B1FBF0F00A49096831
:10076000B1FBF0F000F0D5FC48B9102C07D2002204
:100770002146501E00F036F800206C6070BD01204C
:1007800070BD00006C000020780000200C4808B507
:10079000816941F001018161816901F001010091EC
:1007A000C16941F08051C161C06900F08050009082
:1007B0000448416821F0E06141F00071416008BDEA
:1007C0000010024000000140002809DB00F01F0279
:1007D000012191404009800000F1E020C0F80011A3
:1007E00070470000F0B40E4B1B680C46C3F30223A5
:1007F000C3F10705042D00D90425191D072901D2CD
:10080000002300E0DB1E012606FA05F1491E214007
:1008100099409E40761E16403143F0BC01F07BBEED
:100820000CED00E0064900F0070208684FF6FF03F0
:10083000184040EA0220034A104308607047000055
:100840000CED00E00000FA052DE9F0470F46050029
:1008500061D0434E306800F00700B84209D23068DA
:1008600020F0070038433060306800F00700B842DD
:1008700051D128683B4C810712D5400703D56068E9
:1008800040F4E06060602878000703D5606840F4B9
:10089000605060606068A96820F0F0000843606004
:1008A0002878C00728D06868012810D0216802285D
:1008B00010D0890700292EDA616821F00301014375
:1008C0006160FFF723FF804641F288390DE021681F
:1008D0008903EFE78901EDE7FFF718FFA0EB0801B7
:1008E000494502D90320BDE8F0876068696800F0D7
:1008F0000C00B0EB810FEFD1306800F00700B84278
:100900000BD9306820F0070038433060306800F0C1
:100910000700B84201D00120E5E72878400705D557
:100920006068E96820F4E0600843606028780007A8
:1009300006D56068296920F4605040EAC100606013
:1009400000F018F86168084AC1F30311515CC8400F
:100950000649086006480068FFF7F8FE0020C2E775
:1009600000200240001002403E2B000878000020CA
:100970007000002012A185B00FC98DE80F0014A0EF
:10098000144A006804905168134801F00C03042BCA
:1009900010D0082B0ED1C1F38343C9031DF8030007
:1009A0000AD5516804AAC1F34041515C0A4A504338
:1009B000B0FBF1F005B0704708494843FAE7000082
:1009C00002030405060708090A0B0C0D0E0F101090
:1009D000010200000010024000127A0000093D00F0
:1009E0002DE9F84F040070D02078C04DC00749D0E1
:1009F0006868C0F38100012807D06868C0F38100EF
:100A0000022809D16868C00306D52868800339D553
:100A100060680028E7D035E06068B0F5803F0BD013
:100A200010B1B0F5A02F11D0286820F480302860D4
:100A3000286820F4802002E0286840F48030286094
:100A4000606890B1FFF762FE06460AE0286840F44D
:100A500080202860F0E700BFFFF758FE801B642865
:100A600073D828688003F7D50CE0FFF74FFE0646E1
:100A700005E000BFFFF74AFE801B6428F0D8286815
:100A80008003F7D420789A4E80074FF001094FF089
:100A9000000839D5686810F00C0F07D06868C0F3FB
:100AA0008100022809D16868C00306D4286880073D
:100AB00014D52069012808D110E02069B0B1C6F82A
:100AC0000090FFF723FE074605E00AE1FFF71EFE50
:100AD000C01B0228C4D828688007F7D52868616938
:100AE00020F0F80040EAC10028600DE0C6F8008060
:100AF000FFF70CFE074604E0FFF708FEC01B0228C4
:100B000023D828688007F7D4207800072CD57948A7
:100B1000A169D9B1C0F80090FFF7F8FD074604E0DD
:100B2000FFF7F4FDC01B02280FD8686A8007F7D5CD
:100B300071484FF4FA510068B0FBF1F0009000BF2B
:100B40000098411E0091FAD20EE080E0C0F80080CB
:100B5000FFF7DCFD074604E0FFF7D8FDC01B0228C5
:100B600075D8686A8007F7D42078400760D5E869AF
:100B70000027C00008D4E86940F08050E861E869C7
:100B8000012700F0805000905C480168C90513D42B
:100B90000168834641F480710160FFF7B7FD82462A
:100BA00006E000BFFFF7B2FDA0EB0A0064284ED8B4
:100BB000DBF80000C005F5D5E06801280AD008B1CF
:100BC000052813D0286A20F001002862286A20F046
:100BD000040002E0286A40F001002862E06841F267
:100BE000883B98B1FFF792FD82460BE0286A40F0FF
:100BF00004002862EEE700BFFFF788FDA0EB0A01C2
:100C000059455AD8286A8007F6D50CE0FFF77EFDD3
:100C1000824605E0FFF77AFDA0EB0A0159454CD862
:100C2000286A8007F6D41FB1E86920F08050E86197
:100C3000E06988B36968C1F38101022944D00228C0
:100C4000C6F8608004D0FFF761FD044638E034E068
:100C5000FFF75CFD074604E0FFF758FDC01B0228C4
:100C60002BD828688001F7D4206AB0F5803F05D1E1
:100C70006868A16820F4003008436860D4E908017E
:100C80000843696821F4741108436860C6F86090ED
:100C9000FFF73CFD044606E025E000BFFFF736FD08
:100CA000001B022809D828688001F7D51BE000BF87
:100CB000FFF72CFD001B022802D90320BDE8F88FA6
:100CC00028688001F4D40EE00128F7D06868226A11
:100CD00000F48031914204D1616A00F470108842BE
:100CE00001D00120EAE70020E8E700000010024000
:100CF0000000424280044242780000200070004020
:100D00007047000038B50446006842688168C943EE
:100D10004B0606D5CB0704D1D3435B0601D4216C27
:100D200005E08B0708D4D3431B0605D4616C01B0E2
:100D30002046BDE8304008478B0601D54B0646D417
:100D4000D3439B0643D44B060AD494F85130032B6B
:100D50003ED0636D43F004036365C368836800930A
:100D6000890609D4616D41F00101616581680091D6
:100D7000016821F040010160606D002827D02068E3
:100D8000416821F0E0014160012084F851009007A2
:100D900022D02068416821F003014160104DE06CD1
:100DA00040B14563E06CFFF78FFA18B1606D40F019
:100DB00040006065A06C002809D04563A06CFFF777
:100DC00083FA002803D0606D40F04000606538BDB4
:100DD000C1688068009038BD2046FFF791FF38BD9C
:100DE000ED1F000870B5040009D0606A002540B10D
:100DF00025616561A56294F8510040B10CE00120C5
:100E000070BD6068B0F5827FF4D0E561F2E784F8E8
:100E10005050204600F040F8022084F8510020682D
:100E2000016821F040010160A088218900F48270EE
:100E300001F404410843A18901F400610843217CC5
:100E400001F002010843217D01F001010843218BDB
:100E500001F400710843217F01F03801084394F840
:100E6000201001F080010843218D01F40051084356
:100E700021680860A069042101EA104021684860E7
:100E80002068C16921F40061C1616565012084F8B1
:100E90005100002070BD000070B586B000250646E8
:100EA000009501950295039500682D49884255D11A
:100EB0002C49886940F480508861886900F480502A
:100EC0000490886940F004008861886900F004009B
:100ED0000490886940F0080088618869694600F0DC
:100EE000080004904FF4004000901F48FFF710FBEB
:100EF0002820CDE900051D4C694620460295FFF7E4
:100F000007FB102000900220019003200390694607
:100F10002046FFF7FDFA1648416841F0E06141F0D4
:100F200001014160144C1348C4E900058020C4E964
:100F3000025020202561C4E905502046E561FFF7F5
:100F4000B9FA08B1FFF7ABF9F46400221146232087
:100F50006662FFF747FC2320FFF736FC06B070BD42
:100F6000003001400010024000080140000C014028
:100F7000000001401C00024044480020F0B400245E
:100F80008568134604261DB94268B2F5827F0DD0EC
:100F900090F85020012A0FD0012280F8502090F8BC
:100FA00051700022012F0AD0022436E080F85160EF
:100FB000F0BC0A4600F05AB80220F0BC704771B18C
:100FC0006BB180F85160426581638387C387026398
:100FD0008286C2864264C16819B1124902E00124C6
:100FE0001BE011490164B5F5004F09D101680B6898
:100FF00023F040030B6001680B6823F480430B600F
:1010000001684B6843F060034B6001680B685B0646
:1010100003D40B6843F040030B6080F85020204657
:10102000CBE70000792000089920000870B50D4931
:1010300000680968884213D10B4C607801F02AFCE3
:10104000A4F160056866207801F024FCA866A07809
:10105000642801D3643800E040426870E07828706A
:1010600070BD0000EC47002060000020F0B590F853
:1010700050500024012D0CD0012580F8505090F8DC
:10108000515000264768012D0BD0B7F5827F06D15D
:1010900001E00220F0BD87680FB9042D01D00224C1
:1010A00029E0A9B1A2B19BB190F85150042D02D012
:1010B000052580F85150466501638386C3868263A7
:1010C0008387C387C16829B10D4901640D4904E0D4
:1010D000012410E00C4901640C49416401684A682C
:1010E00042F0E0024A6001680A68520603D40A68C6
:1010F00042F040020A6080F850602046F0BD0000D7
:10110000511E0008B11E0008811E0008E11E0008E3
:10111000704710B5401EB0F1807F01D3012010BD93
:101120004FF0E02460610F21601701F0F4F9002016
:10113000A06107202061002010BD704770470000AB
:1011400070B590F83C20012A26D0012480F83C405C
:10115000022280F83D2003685A689D6822F07006DC
:101160000A6832435A600D4B02689A4208D0B2F1C5
:10117000804F05D00A4B9A4202D00A4B9A4204D1C2
:10118000496825F080031943916080F83D400021B3
:1011900080F83C10084670BD022070BD002C014054
:1011A000000400400008004010B5040003D094F88B
:1011B0003D0010B107E0012010BD002084F83C0084
:1011C000204600F01FF8022084F83D00211D206811
:1011D00001F060F8012084F8460084F83E0084F8AD
:1011E0003F0084F8400084F8410084F8420084F80D
:1011F000430084F8440084F8450084F83D00002052
:1012000010BD000008B501681048B1F1804F14D03E
:101210000F4A914219D1C16941F00201C161C0690F
:10122000002200F00200009011461D20FFF7DAFABC
:10123000BDE808401D20FFF7C7BAC16941F00101B0
:10124000C161C06900F00100009008BD00100240BB
:101250000004004090F83D10012901D001207047A2
:10126000022180F83D100168CA6842F00102CA609C
:1012700000680B49884208D0B0F1804F05D0094979
:10128000884202D00849884204D1816801F00701F0
:10129000062903D0016841F0010101600020704778
:1012A000002C0140000400400008004070B50446D6
:1012B00090F83C00012817D0012584F83C5002200A
:1012C00084F83D002068826822F0770222F47F4291
:1012D00082600868502830D00DDC20284DD005DC15
:1012E00098B310283BD148E0022070BD302844D08C
:1012F000402834D139E0602828D0702806D0B0F5D5
:10130000805F2CD0B0F5005F29D10AE0CB68D1E92D
:101310000121206801F001F82068816841F077011F
:1013200009E0CB68D1E90121206800F0F6FF2068D0
:10133000816841F48041816011E0CA684968206891
:1013400001F0A0F85021206807E016E0CA6849685B
:10135000206801F0A8F86021206800F0E8FF84F818
:101360003D50002084F83C0070BDCA684968206880
:1013700001F088F840212068EFE722680146104616
:10138000EBE72DE9F0410D46040003D094F83D0051
:1013900018B108E00120BDE8F081002084F83C008D
:1013A000204600F041F8022084F83D002068816862
:1013B00044F2070291438160211D206800F06AFF1A
:1013C000226890689169166A2B68AF69034340F2FE
:1013D0000330814341EA0721A868EF6908434FF6CB
:1013E000FC418843E96840EA0720014328692F6AE5
:1013F000000140EA0730084369686D6926F022065B
:1014000046EA0515294393602268906154F8460B1B
:101410000162012004F81F09E0752076E07620774C
:10142000A0750020B7E7000000B585B0002100914D
:101430000191029103911B4A01681B48914215D109
:10144000816941F400618161816901F40061049165
:10145000816941F0040181618069694600F00400FE
:1014600004904FF440700090104816E0104A9142EA
:1014700015D1C16941F00401C161C16901F00401E4
:101480000491816941F0080181618069694600F039
:1014900008000490C02000900648FFF739F805B016
:1014A00000BD0000002C0140001002400008014077
:1014B00000080040000C014070B590F83E60044602
:1014C00090F83F5090F8423090F84320022021B12C
:1014D00004290ED0012E1BD114E0012E18D1012BAE
:1014E00016D184F83E0084F84200012200212068D1
:1014F00020E0012D0CD1012A0AD184F83F0084F8A4
:10150000430014E0012D03D1012B01D1012A01D0A8
:10151000012070BD84F83E0084F83F0084F842004A
:1015200084F8430001220021206800F0E9FE012236
:101530000421206800F0E4FE2068016841F0010108
:101540000160002070BD704770B5044600680169F5
:101550004FF00005C943890715D4C168C9438907FD
:1015600011D4E91E0161012020772068806980077D
:10157000204602D0FFF7E7FF04E000F0D9F820464C
:1015800000F068F9257720680169C943490717D435
:10159000C168C943490713D46FF0040101610220F7
:1015A00020772068806910F4407F204602D0FFF742
:1015B000CAFF04E000F0BCF8204600F04BF92577A4
:1015C00020680169C943090716D4C168C9430907DE
:1015D00012D46FF008010161042020772068C069EF
:1015E0008007204602D0FFF7AEFF04E000F0A0F82D
:1015F000204600F02FF9257720680169C943C90604
:1016000017D4C168C943C90613D46FF01001016132
:10161000082020772068C06910F4407F204602D05F
:10162000FFF791FF04E000F083F8204600F012F984
:10163000257720680169C943C90708D1C168C94332
:10164000C90704D1891E0161204600F053F92068C2
:101650000169C943090609D4C168C943090605D40B
:101660006FF0800101612046FFF767FD2068016986
:10167000C943490609D4C168C943490605D46FF076
:1016800040010161204600F0A9F920680169C943C1
:1016900089060BD4C168C943890607D46FF02001BD
:1016A00001612046BDE87040FFF748BD70BD0000F5
:1016B00010B586B00021009101910291039100685C
:1016C000B0F1804F2AD11648816941F0040181614F
:1016D000816901F004010491816941F0080181618F
:1016E0008069022400F0080004900120CDE9000484
:1016F00069460C480394FEF70BFFA002CDE90004F5
:10170000694609480394FEF703FF0848416821F43D
:10171000407141F0E06141F40071416006B010BDDC
:101720000010024000080140000C01400000014090
:10173000704770B5044690F83C000D4601280AD069
:10174000012084F83C0042B1042A18D0082A2AD08B
:101750000C2A4DD139E0022070BD206800F0F0FD68
:101760002068816941F0080181612068816921F068
:1017700004018161206881692A69114311E02068B0
:1017800000F006FE2068816941F4006181612068F3
:10179000816921F480618161206881692A6941EA57
:1017A0000221816124E0206800F01EFE2068C169EA
:1017B00041F00801C1612068C16921F00401C161E3
:1017C0002068C1692A69114311E0206800F038FEE1
:1017D0002068C16941F40061C1612068C16921F4D8
:1017E0008061C1612068C1692A6941EA0221C16141
:1017F000002084F83C0070BD10B5040003D094F8BC
:101800003D0010B107E0012010BD002084F83C002D
:10181000204600F01EF8022084F83D00211D2068BB
:1018200000F038FD012084F8460084F83E0084F87A
:101830003F0084F8400084F8410084F8420084F8B6
:10184000430084F8440084F8450084F83D000020FB
:1018500010BD70477047000010B50446022249B120
:1018600004290ED0082913D094F84100012816D07D
:10187000012010BD94F83E000128F9D184F83E20E3
:101880000FE094F83F000128F2D184F83F2008E0EF
:1018900094F840000128EBD184F8402001E084F85E
:1018A00041200122206800F02BFD0F49206888426A
:1018B00003D1426C42F4004242642068884208D05E
:1018C000B0F1804F05D00949884202D008498842CA
:1018D00004D1816801F00701062903D0016841F0B5
:1018E00001010160002010BD002C014000040040F7
:1018F0000008004070B500683349884262D1411445
:101900003248FEF7F5FE00F039FE00F015FE304CCF
:10191000D4E9010100F03CFE6061D4E9030100F06C
:1019200037FEA061014622782A48022A27D0012AE0
:1019300035D0032A43D06088B0F5FA6F0ED2401C30
:1019400080B2254B6080626943F8202003F5FA528B
:1019500042F8201002F5FA5261781154D4E91901C5
:1019600000F0D4F9E06D00F075FF85B2A06D00F0D5
:1019700071FF2946BDE8704080B2FEF793BC014676
:1019800000F0C4F9E06D00F065FF85B2A06D00F0D5
:1019900061FF2946BDE8704080B200F041BA0146BF
:1019A00000F0B4F9E06D00F055FF85B2A06D00F0D5
:1019B00051FF2946BDE8704080B200F01FBA0021F7
:1019C0000846CDE770BD0000000400400010014053
:1019D000000000200000F0417C0000207047FEE77E
:1019E000094808B5416941F001014161406900229F
:1019F00000F00100009011460C20FEF7F3FEBDE858
:101A000008400C20FEF7E0BE001002402DE9F04730
:101A100086B000242D4800940194029403948169B7
:101A200041F010018161816901F010010491816927
:101A300041F020018161816901F0200104918169F7
:101A400041F004018161816901F00401049181691F
:101A500041F0080181618069DFF8748000F00800BE
:101A60004FF400550490002229464046FEF748FEF8
:101A7000DFF860900022C0214846FEF741FEDFF803
:101A800058A040F20347002239465046FEF738FE80
:101A90000095022601250396CDE90154694640468A
:101AA000FEF736FDC020CDE90005CDE902466946C6
:101AB0004846FEF72DFD00970396CDE9015469468F
:101AC0005046FEF725FD06B0BDE8F0870010024045
:101AD0000010014000080140000C01400E4810B504
:101AE0000C49016000214FF400624160C0E902121C
:101AF0000161416181610162416281620A21C162C9
:101B0000FFF770F9002803D0BDE81040FEF7C7BB0F
:101B100010BD000000300140EC47002010B58CB033
:101B200024216846FEF750FB002417480994154904
:101B30000A94C0E900144FF6FF71C0E90241802108
:101B40000461C0E905410320CDE900040120CDE98D
:101B500002040494CDE90540079469460A480894B4
:101B6000FFF70FFC08B1FEF79AFB099409A9064894
:101B70000A94FFF7E5FA002801D0FEF790FB0CB0BD
:101B800010BD0000002C0140CC46002010B58EB0E6
:101B900000240794089409940A940B941C21684625
:101BA0000C94FEF711FB22484FF080410160472161
:101BB000C0E901144FF47A71C0E903148461FFF79E
:101BC000F3FA08B1FEF76BFB4FF48050079007A9BA
:101BD0001748FFF76BFB08B1FEF761FB1448FFF7EE
:101BE0000BFE08B1FEF75BFB0B940BA910480C949D
:101BF000FFF7A6FA08B1FEF752FB6020CDE900041A
:101C00000294002269460A480494FFF792FD08B145
:101C1000FEF745FB0C2269460548FFF78AFD08B12F
:101C2000FEF73DFB0248FFF743FD0EB010BD00007C
:101C30001447002010B586B0002417480094019482
:101C40000294039404941349059401604721C0E968
:101C5000011442F20F71C0E9031480218161FFF782
:101C6000A3FA08B1FEF71BFB4FF4805000906946C1
:101C70000948FFF71BFB08B1FEF711FB049404A908
:101C800005480594FFF75CFA002801D0FEF707FB32
:101C900006B010BD000400405C47002010B58CB0B9
:101CA00024216846FEF790FA002416480994144946
:101CB0000A94C0E900144FF6FF71C0E90241802187
:101CC000046181610320CDE900040120CDE9020413
:101CD0000494CDE90540079469460A480894FFF743
:101CE00050FB08B1FEF7DBFA099409A905480A94EC
:101CF000FFF726FA002801D0FEF7D1FA0CB010BD8C
:101D000000080040A4470020FEE7FEE72DE9F84F59
:101D1000364C8B46E66A2663616900F09BFEE06202
:101D2000E16981460546009100F0C8FD616B00F055
:101D30006DFC074660633146284600F08BFEA16AC1
:101D400000F0BCFD009900F0C3FC06463946606A0D
:101D500000F0B4FD07462946206A00F0AFFD394681
:101D600000F054FC314600F051FCDFF884A0A06381
:101D7000514600F0A3FD1F4DA065A84200DDA565FA
:101D8000A06CE06480465846A16900F063FEA06440
:101D90000646009900F092FD216D00F037FC0746E1
:101DA00020654146304600F055FE616C00F086FD2E
:101DB000009900F08DFC06463946206C00F07EFD4F
:101DC00007464946E06B00F079FD394600F01EFCFD
:101DD000314600F01BFC5146606500F06FFDE06588
:101DE000A84200DDE565BDE8F88F00000000002096
:101DF00000002041000061447047000070B50D46AE
:101E00000446012211460548FEF77AFC204600F000
:101E1000C7F92846BDE8704000F0D8B9000C014071
:101E200070B50D460446012211460548FEF768FCD0
:101E3000284600F0E1F92046BDE8704000F09AB96C
:101E4000000C01400148FEF75DBF0000EC47002098
:101E50000168C968826B1180816B891C8163C18FA5
:101E6000491EC187C18F002909D101684A6822F043
:101E700040024A60C18E002901D100F049B8704784
:101E80000168097B826B1170816B491C8163C18F72
:101E9000491EC187C18F002909D101684A6822F013
:101EA00060024A60C18E002901D100F031B870474C
:101EB000016B02680988D160016B891C0163C18EC6
:101EC000491EC186C18E002909D101684A6822F0E5
:101ED00080024A60C18F002901D100F019B8704713
:101EE000016B026809781173016B491C0163C18E93
:101EF000491EC186C18E002909D101684A6822F0B5
:101F000080024A60C18F002901D100F001B87047FA
:101F100038B50446214845F6C0510068B0FBF1F0E1
:101F2000642148430090FEF7F1FB024620684168B7
:101F300021F020014160009888B1401E0090206887
:101F400080688007F7D56421204600F085F818B135
:101F5000606D40F020006065A06828B108E0606D09
:101F600040F020006065EEE72068C168806800905E
:101F7000616D012029B184F851002046FEF7C0FEB2
:101F800038BD94F8511084F851000429204602D03D
:101F9000FFF7BEF838BDFFF749F838BD78000020DC
:101FA00038B504460068416821F060014160FEF7E1
:101FB000ADFB02466421204600F020F818B1606DA8
:101FC00040F020006065A06818B92068C16880688A
:101FD0000090012084F85100606D0028204602D056
:101FE000FEF78EFE38BDFFF721F838BD10B5406A08
:101FF0000021C187C186FEF783FE10BDF8B50446F7
:1020000040684FF48273984217D1A0684FF48065FE
:10201000B0F5004F01D0A8420FD12068066826F025
:10202000400606606068984207D1A068A84204D1C3
:1020300000920B460022012103E000920B46002291
:102040008021204600F038F8002804D0606D40F070
:10205000200060650320F8BD38B50B4600920446A9
:102060000022802100F028F8002804D0606D40F0A4
:1020700020006065032038BD0168C968826B11804B
:10208000816B891C8163C18F491EC187C18F002963
:1020900001D1FFF785BF70470168097B826B117022
:1020A000816B491C8163C18F491EC187C18F002983
:1020B00001D1FFF775BF70472DE9F8431E469146E1
:1020C00088460446089DFEF721FB401B351AFEF7A3
:1020D0001DFB074625480068C0F3CB30684338E055
:1020E000701C37D0FEF712FBC01BA84203D215B1FB
:1020F000009860B32CE02068416821F0E001416065
:102100006068B0F5827F0BD1A068B0F5004F02D0B7
:10211000B0F5806F04D12068016821F040010160B2
:10212000A06AB0F5005F09D12068016821F4005170
:1021300001602068016841F400510160012084F8C9
:102140005100002084F850000320BDE8F8830025EA
:10215000401E00902068816838EA010004D0002108
:102160004945BDD10020F0E70121F9E778000020C2
:1021700070470000084910B509684863074C002201
:1021800080212046FEF7BCFA20460122BDE810401F
:102190004021FEF7B5BA00001447002000080140B6
:1021A000084910B509684863074C01228021204680
:1021B000FEF7A6FA20460022BDE810404021FEF7B7
:1021C0009FBA00001447002000080140084910B5DC
:1021D00009680864074C002202212046FEF790FAA5
:1021E00020460122BDE810409102FEF789BA0000A6
:1021F00014470020000C0140084910B50968086424
:10220000074C012202212046FEF77AFA002221150E
:102210002046BDE81040FEF773BA000014470020C6
:10222000000C0140FEF778BA30B58FB0282168461F
:10223000FDF7CAFF14210AA8FDF7C6FF0121080413
:10224000CDE900100024029402250491CDE9075045
:102250004FF4E01009906846FEF7C2FB08B172B671
:10226000FEE70F20CDE90A054FF48060CDE90C4070
:1022700002210AA80E94FEF7E7FA002801D072B6F0
:10228000FEE70FB030BD70470148FFF75DB90000B1
:102290005C470020F0B50268164B174C174D4FF005
:1022A0008047984205D0B84203D0A04201D0A8424E
:1022B00003D122F070064A683243984205D0B842F2
:1022C00003D0A04201D0A84203D122F44074CA68CE
:1022D00022434C6922F08002224302608A68C26273
:1022E0000A688262984201D1096901630121416152
:1022F000F0BD0000002C0140000400400008004038
:1023000010B501F01F030121046A99408C43046257
:10231000016A9A401143016210BD10B5846842EA17
:10232000032224F47F440A432243826010BD826862
:1023300022F070020A4342F00701816070470000FA
:1023400030B5026A22F001020262026A43688469BF
:1023500024F073050C682C4322F002058A682A4396
:102360000A4DA8420BD122F00805CA6823F4407335
:102370002A434D6922F004021D438B692B434360BD
:10238000846149684163026230BD0000002C014055
:1023900030B5026A22F010020262026A4368846960
:1023A0000D6824F4E64444EA05248D6822F02002F6
:1023B00042EA05120B4DA8420ED1CD6822F08002F0
:1023C00042EA05124D6923F4406343EA85038D69AF
:1023D00022F0400243EA85034360846149688163D7
:1023E000026230BD002C014030B5026A22F48072D6
:1023F0000262036A4268C46923F4007324F073051F
:102400000C682C438D6843EA05230C4DA8420ED17D
:10241000CD6823F4006343EA05234D6922F440525A
:1024200042EA05128D6923F4806342EA0512426094
:10243000C4614968C163036230BD0000002C0140E3
:1024400030B5026A22F480520262046A4268C369AB
:102450000D6823F4E64343EA05238D6824F4005411
:1024600044EA0534064DA84204D14D6922F4804265
:1024700042EA85124260C36149680164046230BD6A
:10248000002C014010B5036A046A24F001040462C0
:10249000846924F0F00444EA021423F00A020A4397
:1024A0008461026210BD10B5036A23F01003036259
:1024B0008369046A23F4704343EA023224F0A003E0
:1024C00043EA01118261016210BD000010B5FFF7FF
:1024D00025FBFFF75BFBFFF7ADFBFFF7DFFB3C21C5
:1024E0000B48FEF7E9FF0A483C21D830FEF7E4FF2D
:1024F000074800214830FFF7AFF905480C21483064
:10250000FFF7AAF90248BDE810409030FEF7A2BEDE
:10251000CC460020FEE70907090E002804DB00F185
:10252000E02080F80014704700F00F0000F1E02078
:1025300080F8141D704700000648816841600169F9
:10254000C16005490968496A816004490968496AA6
:102550000161704700000020CC460020A447002005
:10256000FEF7E2F8FFF760FEFFF750FAFFF738FAE0
:10257000FFF7B4FAFFF7AAFFFEE7000004220249C2
:102580000248FEF7FBBC000060000020EC47002082
:102590002DE9F04105461C480C461A4AC06947F22D
:1025A00030514FF6FF77AC4214D9661B8E4206D9E4
:1025B000114600F083F90646381B284418E01146FE
:1025C00000F07CF90446C6EB0610800000F062F9CA
:1025D000214613E0A54202D10020BDE8F0812E1B68
:1025E0008E42ECD9114600F069F90646781B20446A
:1025F000C0EB0010800000F04DF93146BDE8F0411D
:1026000000F066B80040C4440000002090EA010FCA
:1026100048BF81F0004100F12482421A3CBF801A79
:1026200089184FEAD0524FF07F4C1CEA410FA2EBC1
:10263000D15318BF9CEA026F00F03B804FF0004C72
:102640004CEA00204CEA012121FA03FC10EB0C0CAF
:102650001ED202F1FF325FEA1C2040EBC25038BFAD
:1026600070471CF07F0F4FEA400C18BFBCF17F4F42
:1026700038BF7047C3F12003994008BF20F0010024
:10268000BCF17F4F38BF7047A0F1C04000F0DDB90A
:102690004FEA3C00000A40EBC25028BF1CF0FF0F7D
:1026A0004FEA400CE6D018BFBCF17F4F38BF7047EF
:1026B000EAE79CEA026F05D010EA5C0F08BF00F061
:1026C0000040704710B500F07AF900BF64FBBE3ED1
:1026D0004FF47F0C1CEAD0121EBF1CEAD11392EA01
:1026E0000C0F93EA0C0F00F0858090EA010F48BFB1
:1026F00042F4807240F4000C41F400002CF07F4161
:1027000020F07F4000B58142A2EB03020FF2081CCB
:10271000ACEB504EC0F100009EF800E04FEA4E0EC8
:1027200000FB0EFC38BF49004FEA2C1C02F5FA02F0
:102730000CFB0EF34FEACE1E4FEA112C4FEAC121DB
:102740000EEB635E42EB22420EFB0CFC4FEA1C5385
:1027500000FB03114FEA112C4FEA01310EFB0CFC78
:102760004FEADC4C00FB0C11C14228BF09184CEBAE
:1027700003335DF804EB10EB410143EBC250B2F5BB
:102780007C0F38BF704729D512F0F00F1CBF00F145
:10279000C04000F0004070470081828384858687B6
:1027A00088898B8C8D8E8F919293959697999A9C10
:1027B0009D9FA0A2A3A5A7A8AAACAEB0B2B3B5B77F
:1027C000B9BCBEC0C2C5C7C9CCCED1D4D7D9DCDF55
:1027D000E2E6E9ECF0F3F7FAFE0000004FEA400C05
:1027E0000CF1807CBCF17E4F28BF7047B0F1C04037
:1027F00000F02BB990EA010F0CEAD11348BF42F464
:102800008072624538BF634507D213F47F0F16D03C
:1028100080EA010000F00040704710B500F0CFF8EA
:10282000097EFC3E00F005B880EA010000F000409F
:10283000704780EA010000F0004000F006B912F491
:102840007F0F04BF0248704780EA010000F0FDB826
:102850000000C07FC10DD1F19E0206DB4FEA0023CC
:1028600043F0004323FA02F07047004207D54FEAD5
:102870004001B1F1FE4F02D24FF00000704710B599
:1028800000F09DF849922480002070476FEA2000F4
:1028900070470000B0FA80F310FA03F2C3F19D0311
:1028A0000AD0D90501EB1220530638BF704700F15A
:1028B000010008BF20F00100704700004FF47F0CBA
:1028C0001CEAD0121EBF1CEAD11392EA0C0F93EA45
:1028D0000C0F00F0478090EA010F48BF42F480726D
:1028E0004FF0004C4CEA00204CEA012102EB0302BD
:1028F000A0FB0113A2F50002002918BF43F0010359
:102900005B0028BF4FEA330342EB22425FEA132CFD
:102910004CEBC2502EBFBCEB436FB2F57C0F70473F
:102920004FEA036CBCF1004F08BF20F00100B2F584
:102930007C0F38BF70470BD582F0FF0212F5803F45
:10294000C8BF704700F1C040D8BF00F000407047DA
:1029500000F5000C5FEA4C0C48BF7047B0F1C04076
:1029600000F073B890EA010F0CEAD11348BF42F4AB
:102970008072624538BF634504D280EA010000F0EE
:102980000040704710B500F01AF800BF8900013E02
:1029900000F007B800F009B85FEA410C5FEA1C6C70
:1029A00008D080EA010000F050B85FEA400C5FEA0E
:1029B0001C6CF6D14FF00040A0F5800070470EF17E
:1029C000020E2EF0030E5EF8044B244204D44FEAAC
:1029D0004102B2F17F4F11D84FEA4003B3F17F4F6C
:1029E0000CD80ED14FEAD07CB2F17F4F0CEB4C0CDF
:1029F0000CF1020C08BF4CEBD17C04E04FF0080C4A
:102A000001E04FEAD17C0CEB4C0324FA03F404F010
:102A10000704B4F1040C06D20EEB840CBDE81040A0
:102A20004CF0010C6047DFE80CF0070802024FF0A1
:102A30000040A0F5800010BD0846420018BFD2F14A
:102A4000807288BF00F0004010BDFF2141EAD050E5
:102A5000C005704790EA010F48BF81F000413FF583
:102A6000DCAD421A04D882F00042A0EB020011440F
:102A70004FEAD0524FF07F4C1CEA410FA2EBD153EA
:102A800018BF9CEA026F4AD04FF0004C4CEA00207D
:102A90004CEA012121FA03FCB0EB0C0C0FD412F02C
:102AA000FE0F36D05FEA4C001DD5001240EBC2503D
:102AB00038BF70471CF03F0F18BF70470BE0A2F102
:102AC00001025FEA1C2040EBC25038BF70471CF087
:102AD0007F0F18BF7047C3F12003994014BF401EF9
:102AE00020F00100704780084FEA122308BF7047AA
:102AF000B0FA80FCA2EB0C02CCF1280C60FA0CF0CE
:102B000093EA122F04BF00EBC25070474FEAC37024
:102B10007047130A5FEADC1008BF7047F6E79CEACB
:102B2000026F04D010EA5C0F08BF0020704710B598
:102B3000FFF745FF40DFF63E81F0004070470000A0
:102B4000000000000000010203040607080900005D
:102B5000702B0008000000207C0000002801000805
:102B6000EC2B00087C0000206C4E000044010008A3
:102B70000000000000000000000000000000000055
:102B80000000000000000000000000000AD7233C05
:102B900014AE273F2FDDAE41000000000000000012
:102BA000000000000000000000000000091B1E3FA4
:102BB000A1F8A64100000000000000000000000095
:102BC0000000000000000000000000000000000005
:102BD00000000000000000000000000001000000F4
:0C2BE00010000000000000000024F400C1
:04000005080000ED02
:00000001FF
