:020000040800F2
:10000000D00800208901000843200008B91D00081D
:1000100041200008D5030008352400080000000036
:10002000000000000000000000000000F9210008AE
:100030000F0400080000000045200008FB21000814
:10004000A3010008A3010008A3010008A301000800
:10005000A3010008A3010008A3010008A3010008F0
:10006000A3010008A3010008A3010008D9030008A8
:10007000A3010008A3010008A3010008A3010008D0
:10008000A3010008A3010008A3010008A3010008C0
:10009000A3010008A3010008A3010008A3010008B0
:1000A000A3010008A3010008A301000879220008A9
:1000B00085220008A3010008A3010008A30100088D
:1000C000A3010008A3010008A301000849200008BB
:1000D000A3010008A3010008A3010008A301000870
:1000E000A3010008A3010008A301000800F002F822
:1000F00000F03AF80AA090E8000C82448344AAF188
:100100000107DA4501D100F02FF8AFF2090EBAE885
:100110000F0013F0010F18BFFB1A43F0010318473B
:100120003038000050380000103A24BF78C878C139
:10013000FAD8520724BF30C830C144BF04680C60ED
:10014000704700000023002400250026103A28BF35
:1001500078C1FBD8520728BF30C148BF0B60704739
:100160001FB51FBD10B510BD00F058F81146FFF7C0
:10017000F7FF02F0FDF900F076F803B4FFF7F2FFA5
:1001800003BC00F07DF8000009488047094800479B
:10019000FEE7FEE7FEE7FEE7FEE7FEE7FEE7FEE737
:1001A000FEE7FEE704480549054A064B7047000094
:1001B00077220008ED000008D0020020D0080020BF
:1001C000D0040020D00400204FF0000200B51346F8
:1001D00094469646203922BFA0E80C50A0E80C5067
:1001E000B1F12001BFF4F7AF090728BFA0E80C5018
:1001F00048BF0CC05DF804EB890028BF40F8042B11
:1002000008BF704748BF20F8022B11F0804F18BF7D
:1002100000F8012B7047704770477047754600F033
:100220002BF8AE4605006946534620F00700854688
:1002300018B020B5FFF7B6FFBDE820404FF000062C
:100240004FF000074FF000084FF0000B21F00701BE
:10025000AC46ACE8C009ACE8C009ACE8C009ACE801
:10026000C0098D46704710B50446AFF300802046A4
:10027000BDE81040FFF781BF0048704770020020C2
:1002800001491820ABBEFEE72600020070470000BF
:1002900070B5044600688168C943C90717D18168F1
:1002A00021F00101816000F0E5FC05460AE000BF95
:1002B00000F0E0FC401B022804D920688068C0439D
:1002C000C00706D020688068C043C007F0D0002077
:1002D00070BDA06A40F01000A062E06A40F001002A
:1002E000E062012070BD10B50146406A826A12F0DA
:1002F000500F05D0006A026BBDE810400846104759
:10030000816A41F40071816201688968C1F34241E8
:1003100007290CD1017B51B9816A21F48071816276
:10032000816AC90403D4816A41F00101816200F04D
:10033000EFF810BD10B5406A816A41F0400181625A
:10034000C16A41F00401C16200F0E4F810BD10B5CB
:10035000406A00F0DEF810BDF8B5002604460096AD
:1003600000688168C943C9072DD0816841F0010147
:100370008160164816490068B0FBF1F000E0401EAD
:1003800000900028FBD100F075FC054616E000BF88
:1003900000F070FC401B022810D920688068C04320
:1003A000C0070BD0A06A40F01000A062E06A40F0E5
:1003B0000100E06284F824600120F8BD20688068B4
:1003C000C043C007E4D10020F8BD00008C0000202D
:1003D00040420F00FEE70000014800F045BA00006F
:1003E0004401002030B590F840500124AC40C56B6A
:1003F0006C60046863604368102B036803D09960E5
:100400000068C26030BD9A600068C16030BD70474E
:1004100072B6FEE7F8B50024009490F82420254633
:10042000012A12D0012280F824204A681F23072ABB
:100430000DD20668776B521E02EB820293409F43F7
:100440000B6893401F43776319E00220F8BD0668EC
:100450000D2A0AD2376BD21F02EB820293409F43D0
:100460000B6893401F43376309E0F76A0D3A02EBCC
:10047000820293409F430B6893401F43F7620A68D0
:10048000072306680A2A0AD3F7680A3A02EB4202EF
:1004900093409F438B6893401F43F76008E03769A0
:1004A00002EB420293409F438B6893401F433761A6
:1004B0000A68102A01D0112A20D1124B02689A42F0
:1004C00017D193681B0219D4936843F40003936017
:1004D0000968102912D10C490C4A0968B1FBF2F1E4
:1004E00001EB8101490000E0491E00910029FBD188
:1004F00004E0816A41F020018162012480F82450E7
:100500002046F8BD002401408C00002040420F002E
:1005100070477047704700002DE9F0414FF0000729
:1005200004003D467ED0A06A002628B9E66284F821
:100530002460204600F07EF82046FFF7A9FEA16A5D
:10054000C90600D420B1A06A40F01000A06269E0A2
:10055000A16A21F4885141F00201A1626268E16957
:10056000237B0A4347EA43010A43A1684FF480779B
:10057000B94209D0012907D05FF0000194F814C0F6
:10058000BCF1010F02D00AE03946F7E7F3B1A36AE4
:1005900043F02003A362E36A43F00103E3622368AC
:1005A000D3F804C02CF4694C4CEA010CC3F804C025
:1005B00021688B68DFF870C003EA0C0313438B607B
:1005C000A168B9420BD0012909D00CE0DFF85CC06A
:1005D000A3690CEB43330B4343F40061DFE7218A4B
:1005E0000D05A5F580152168CB6A23F470032B4314
:1005F000CB62216889680E4B1940914208D1E662AE
:10060000A16A21F0020141F00101A162BDE8F0817F
:10061000A06A20F0020040F01000A062E06A40F002
:100620000100E0620120F1E7FDF7E1FF00E0FFFFDC
:10063000FE0E1FFF70B586B0002506460095019599
:100640000295039500681A4988422ED11949886994
:1006500040F400708861886900F400700490886933
:1006600040F0040088618869694600F00400049045
:100670001F200090032001900F4800F005FA104C55
:100680000E48C4E900058020C4E902504000206102
:10069000800060612020C4E90605204600F08EF944
:1006A00008B1FFF7B5FE3462666206B070BD0000A7
:1006B00000240140001002400008014008000240F0
:1006C000440100202DE9F047894604463B49006873
:1006D0003B4F0E1D9046884201D0B84207D130688A
:1006E00010F4702F03D001252846BDE8F08794F858
:1006F000240001280CD0012084F824002046FFF7B4
:100700002BFE05004FF0000004D084F82400EBE736
:100710000220EAE7A16A40F60162914341F4807148
:10072000A1622168B94218D1326812F4702F14D036
:10073000A16A41F48011A1623168490505D5A16A19
:1007400021F4005141F48051A162A16AC9040AD583
:10075000E16A21F00601E16206E0A26A22F4801259
:10076000A2624968E9E7E06284F82400216A15483A
:100770008862216A1448C862216A144808632168A3
:100780006FF0020008602068816841F48071816028
:10079000216843464A464C31206A00F03DF9206802
:1007A0008168C1F342410729816803D041F4801177
:1007B000816099E741F4A001FAE7000000240140BC
:1007C00000280140E70200084F0300083503000835
:1007D00010B590F821100024022903D00421816370
:1007E00001243DE001680A6822F00E020A600168F7
:1007F0000A6822F001020A601A4A0168914201D196
:10080000012121E0174A1432914201D110211BE04D
:10081000144A2832914201D1891515E0114A3C321F
:10082000914201D189140FE00E4A5032914202D117
:100830004FF4803108E00B4A6432914202D14FF408
:10084000801101E04FF08071064A083A51600121A1
:1008500080F82110002180F82010416B01B18847F9
:10086000204610BD080002402DE9F05FC16B0C6806
:1008700001680B68D0F840C0042202FA0CF2494D1E
:10088000DFF824A1494E4A4FDFF828B1DFF828E10C
:1008900022422CD05A072AD50A68920603D40A6845
:1008A00022F004020A600168A94201D1042219E081
:1008B000514501D1402215E0B14202D14FF480628E
:1008C00010E0B94202D14FF480420BE0594502D109
:1008D0004FF4802206E0714502D14FF4800201E01E
:1008E0004FF080622F4908394A60C16A3BE04FF0FF
:1008F000020808FA0CF818EA040F4FF000094FF04C
:10090000010235D05FEA837832D50B689B0605D4A7
:100910000B6823F00A030B6080F821200168A942CC
:1009200001D1022219E0514501D1202215E0B14246
:1009300002D14FF4007210E0B94202D14FF40052DC
:100940000BE0594502D14FF4003206E0714502D167
:100950004FF4001201E04FF00072124908394A606A
:1009600080F82090816A00291AD0BDE8F05F08471E
:10097000082505FA0CF5254212D01B0710D50B6887
:1009800023F00E030B6090F84010C36B02FA01F1E4
:100990005960826380F8212080F82090016BE2E7A3
:1009A000BDE8F09F080002401C00024030000240F9
:1009B00044000240580002406C00024030B528B3A9
:1009C00008C8134914221944B1FBF2F18900C1632C
:1009D00010498163022141771A6843F6F0718A4316
:1009E000D0E900142143D0E902452C432143046996
:1009F0002143446921438469214311431960002143
:100A00004163012242770177084630BD012030BDA5
:100A1000F8FFFDBF0000024070B5044690F82000CA
:100A2000002501280CD0012084F8200094F82160D2
:100A30000020012E06D084F820000225284670BD33
:100A4000022070BD022684F82160A0632068066839
:100A500026F0010606602046FFF7C4FCE06A002885
:100A60002068016802D041F00E0106E021F0040187
:100A700001602068016841F00A0101602068016896
:100A800041F001010160D9E72DE9F84FDFF8B89195
:100A9000002409F1040A0AF1040B23460F270BF185
:100AA000040EC9E00125A5402A40AA427DD1674E27
:100AB000D1F804C0ACEB0608B44532D014DCBCF16C
:100AC000030F3AD009DCBCF1000F2AD0BCF1010FB2
:100AD0001CD0BCF1020F31D11DE0BCF1110F17D0B9
:100AE000BCF1120F2AD119E0B8F5881F19D006DC25
:100AF000B8F5803F15D0B8F5801F1FD111E0B8F5CB
:100B0000001F0ED0B8F5041F18D10AE0CB6815E01D
:100B1000CB681B1D12E0CB6808330FE0CB680C33A9
:100B20000CE08B682BB1012B4FF0080303D045611B
:100B300004E0042302E0056100E00023FF2A01D85D
:100B4000064601E000F104064FEA840501D9A5F14B
:100B50002005D6F8008007FA05FC28EA0C0803FAFD
:100B600005F548EA0508C6F800804D68ED0062D535
:100B7000374DAE6946F00106AE61AD6924F003065B
:100B800005F001050095334D06EB050CDCF8085027
:100B9000A607360F07FA06F825EA0805DFF8B88039
:100BA000404503D14FF0000817E044E0DFF8AC8087
:100BB000404502D14FF001080FE0DFF8A480404526
:100BC00002D14FF0020808E0DFF89880404502D1DA
:100BD0004FF0030801E04FF0040808FA06F848EA6D
:100BE0000508CCF808804D68D9F80060ED034D4643
:100BF00001D5164300E096432E604D68DAF8006098
:100C0000AD03554601D5164300E096432E604D686E
:100C1000DBF80060ED025D4601D5164300E0964327
:100C20002E604D68DEF80060AD02754601D51643B2
:100C300000E096432E60641C0D682A46E5407FF470
:100C400031AFBDE8F88F0000000401400000111032
:100C5000001002400000014000080140000C01406B
:100C600000100140001401400AB1016170470904FD
:100C7000FBE700000148806870470000800000200A
:100C8000024881680278114481607047800000202A
:100C9000074810B5016841F010010160032000F021
:100CA00075F80F2000F006F800F024F8002010BDC1
:100CB0000020024070B50D4D04464FF47A7128783B
:100CC000B1FBF0F00A490968B1FBF0F000F0B0FCAC
:100CD00048B9102C07D200222146501E00F036F8E9
:100CE00000206C6070BD012070BD000080000020FD
:100CF0008C0000200C4808B5816941F00101816138
:100D0000816901F001010091C16941F08051C16127
:100D1000C06900F0805000900448416821F0E06113
:100D200041F00071416008BD001002400000014028
:100D3000002809DB00F01F020121914040098000DA
:100D400000F1E020C0F8001170470000F0B40E4B35
:100D50001B680C46C3F30223C3F10705042D00D919
:100D60000425191D072901D2002300E0DB1E0126FE
:100D700006FA05F1491E214099409E40761E164014
:100D80003143F0BC01F057BB0CED00E0064900F028
:100D9000070208684FF6FF03184040EA0220034AA2
:100DA00010430860704700000CED00E00000FA05F9
:100DB0002DE9F84305460078354CC00754D0E0696A
:100DC0000026C00008D4E06940F08050E061E0698E
:100DD000012600F0805000902E480168C90512D409
:100DE0000168804641F480710160FFF743FF0746C8
:100DF00005E000BFFFF73EFFC01B642823D8D8F8EA
:100E00000000C005F6D5206A10F4407021D0A988F2
:100E100001F4407181421CD0206A1F49012220F454
:100E200040700A6000220A602062C00711D0FFF7FC
:100E300021FF074641F2883808E000BFFFF71AFF9C
:100E4000C11B414502D90320BDE8F883206A800711
:100E5000F4D5206A696820F44070084320621EB10E
:100E6000E06920F08050E0612878800705D560684F
:100E7000A96820F44040084360602878C00605D582
:100E80006068E96820F48000084360600020DBE7C8
:100E90000010024000700040400442422DE9F0473B
:100EA0000F46050061D0434E306800F00700B8429D
:100EB00009D2306820F0070038433060306800F015
:100EC0000700B84251D128683B4C810712D5400732
:100ED00003D5606840F4E06060602878000703D5BF
:100EE000606840F4605060606068A96820F0F000BD
:100EF000084360602878C00728D06868012810D0AF
:100F00002168022810D0890700292EDA616821F0B3
:100F1000030101436160FFF7ADFE804641F288396D
:100F20000DE021688903EFE78901EDE7FFF7A2FEF5
:100F3000A0EB0801494502D90320BDE8F0876068AD
:100F4000696800F00C00B0EB810FEFD1306800F061
:100F50000700B8420BD9306820F0070038433060F2
:100F6000306800F00700B84201D00120E5E728789A
:100F7000400705D56068E96820F4E06008436060D8
:100F80002878000706D56068296920F4605040EA97
:100F9000C100606000F018F86168084AC1F30311ED
:100FA000515CC8400649086006480068FFF782FEA9
:100FB0000020C2E700200240001002403E39000835
:100FC0008C0000208400002012A185B00FC98DE89C
:100FD0000F0014A0144A006804905168134801F0EF
:100FE0000C03042B10D0082B0ED1C1F38343C9038B
:100FF0001DF803000AD5516804AAC1F34041515CB1
:101000000A4A5043B0FBF1F005B070470849484325
:10101000FAE7000002030405060708090A0B0C0D95
:101020000E0F1010010200000010024000127A00A2
:1010300000093D002DE9F84F040070D02078C04D24
:10104000C00749D06868C0F38100012807D06868EC
:10105000C0F38100022809D16868C00306D528685A
:10106000800339D560680028E7D035E06068B0F5C6
:10107000803F0BD010B1B0F5A02F11D0286820F41C
:1010800080302860286820F4802002E0286840F43E
:1010900080302860606890B1FFF7ECFD06460AE0FA
:1010A000286840F480202860F0E700BFFFF7E2FDE9
:1010B000801B642873D828688003F7D50CE0FFF7FD
:1010C000D9FD064605E000BFFFF7D4FD801B64286C
:1010D000F0D828688003F7D420789A4E80074FF024
:1010E00001094FF0000839D5686810F00C0F07D0DF
:1010F0006868C0F38100022809D16868C00306D47B
:101100002868800714D52069012808D110E02069DB
:10111000B0B1C6F80090FFF7ADFD074605E00AE163
:10112000FFF7A8FDC01B0228C4D828688007F7D5A0
:101130002868616920F0F80040EAC10028600DE0ED
:10114000C6F80080FFF796FD074604E0FFF792FD22
:10115000C01B022823D828688007F7D4207800070E
:101160002CD57948A169D9B1C0F80090FFF782FD6C
:10117000074604E0FFF77EFDC01B02280FD8686A0F
:101180008007F7D571484FF4FA510068B0FBF1F0D1
:10119000009000BF0098411E0091FAD20EE080E05E
:1011A000C0F80080FFF766FD074604E0FFF762FD28
:1011B000C01B022875D8686A8007F7D420784007DA
:1011C00060D5E8690027C00008D4E86940F0805085
:1011D000E861E869012700F0805000905C480168F0
:1011E000C90513D40168834641F480710160FFF79B
:1011F00041FD824606E000BFFFF73CFDA0EB0A0080
:1012000064284ED8DBF80000C005F5D5E068012859
:101210000AD008B1052813D0286A20F001002862FE
:10122000286A20F0040002E0286A40F001002862E9
:10123000E06841F2883B98B1FFF71CFD82460BE065
:10124000286A40F004002862EEE700BFFFF712FDB5
:10125000A0EB0A0159455AD8286A8007F6D50CE058
:10126000FFF708FD824605E0FFF704FDA0EB0A0149
:1012700059454CD8286A8007F6D41FB1E86920F098
:101280008050E861E06988B36968C1F3810102298F
:1012900044D00228C6F8608004D0FFF7EBFC044677
:1012A00038E034E0FFF7E6FC074604E0FFF7E2FC35
:1012B000C01B02282BD828688001F7D4206AB0F51B
:1012C000803F05D16868A16820F400300843686059
:1012D000D4E908010843696821F47411084368607F
:1012E000C6F86090FFF7C6FC044606E025E000BFA4
:1012F000FFF7C0FC001B022809D828688001F7D539
:101300001BE000BFFFF7B6FC001B022802D9032038
:10131000BDE8F88F28688001F4D40EE00128F7D0EA
:101320006868226A00F48031914204D1616A00F455
:101330007010884201D00120EAE70020E8E70000B1
:101340000010024000004242800442428C00002013
:10135000007000407047000038B5044600684268DD
:101360008168C9434B0606D5CB0704D1D3435B063E
:1013700001D4216C05E08B0708D4D3431B0605D4A8
:10138000616C01B02046BDE8304008478B0601D5AE
:101390004B0646D4D3439B0643D44B060AD494F859
:1013A0005130032B3ED0636D43F004036365C36883
:1013B00083680093890609D4616D41F0010161657C
:1013C00081680091016821F040010160606D002892
:1013D00027D02068416821F0E0014160012084F8B5
:1013E0005100900722D02068416821F0030141603C
:1013F000104DE06C40B14563E06CFFF7E9F918B1BE
:10140000606D40F040006065A06C002809D0456325
:10141000A06CFFF7DDF9002803D0606D40F04000BC
:10142000606538BDC1688068009038BD2046FFF710
:1014300091FF38BDD120000870B5040009D0606A62
:10144000002540B125616561A56294F8510040B165
:101450000CE0012070BD6068B0F5827FF4D0E561DA
:10146000F2E784F85050204600F040F8022084F85B
:1014700051002068016821F040010160A0882189A5
:1014800000F4827001F404410843A18901F4006171
:101490000843217C01F002010843217D01F0010194
:1014A0000843218B01F400710843217F01F03801CA
:1014B000084394F8201001F080010843218D01F4C5
:1014C0000051084321680860A069042101EA104026
:1014D000216848602068C16921F40061C1616565C7
:1014E000012084F85100002070BD000030B585B0A7
:1014F0000024009401940294039400681B498842DC
:1015000032D11B48816941F480518161816901F4C4
:1015100080510491816941F0080181618069154D14
:1015200000F0080004902820009002200190032081
:10153000039069462846FFF7A7FA1020CDE900047A
:10154000694628460294FFF79FFA0B48416841F02C
:10155000E06141F001014160002201212320FFF7F9
:10156000F5FB2320FFF7E4FB05B030BD0030014060
:1015700000100240000C01400000014030B590F81E
:1015800050300024012B0BD0012380F85030002371
:1015900041B13AB190F85150012D05D002242FE00D
:1015A000022030BD01242BE0032580F85150436513
:1015B00001638286C28683638387C3870364C168AD
:1015C00009B1114900E0114941648168B1F5004F4A
:1015D00009D101680A6822F040020A6001680A68BD
:1015E00042F480420A6001684A6842F0A0024A6000
:1015F00001680A68520603D40A6842F040020A6091
:1016000080F85030204630BD01210008212100081B
:10161000054900680968884204D10122D1030348C2
:10162000FFF722BB7047000088010020000801403E
:1016300010B5401EB0F1807F01D3012010BD4FF0E6
:10164000E02460610F21601700F0F5FE0020A0612A
:1016500007202061002010BD7047704770B590F8DA
:101660003C20012A26D0012480F83C40022280F848
:101670003D2003685A689D6822F070060A6832436C
:101680005A600D4B02689A4208D0B2F1804F05D0E3
:101690000A4B9A4202D00A4B9A4204D1496825F07B
:1016A00080031943916080F83D40002180F83C1090
:1016B000084670BD022070BD002C014000040040AF
:1016C0000008004010B5040003D094F83D0010B1AC
:1016D00007E0012010BD002084F83C00204600F007
:1016E0001FF8022084F83D00211D206800F0D0FD85
:1016F000012084F8460084F83E0084F83F0084F816
:10170000400084F8410084F8420084F8430084F8E3
:10171000440084F8450084F83D00002010BD00001E
:1017200000B585B0002100910191029103911B4AFF
:1017300001681B4891421CD1816941F400618161BB
:10174000816901F400610491816941F004018161C2
:101750008069694600F004000490901500901148DB
:10176000FFF792F9002211461B20FFF7EFFA1B202A
:1017700010E0B1F1804F0FD1C16941F00101C161A9
:10178000C069002200F00100049011461C20FFF700
:10179000DDFA1C20FFF7CCFA05B000BD002C01409B
:1017A000001002400008014090F83D10012901D0CE
:1017B00001207047022180F83D100168CA6842F09C
:1017C0000102CA6000680B49884208D0B0F1804F1E
:1017D00005D00949884202D00849884204D181686D
:1017E00001F00701062903D0016841F00101016001
:1017F00000207047002C0140000400400008004019
:1018000070B5044690F83C00012817D0012584F8F3
:101810003C50022084F83D002068826822F0770264
:1018200022F47F4282600868502830D00DDC2028E6
:101830004DD005DC98B310283BD148E0022070BDA4
:10184000302844D0402834D139E0602828D070288E
:1018500006D0B0F5805F2CD0B0F5005F29D10AE04A
:10186000CB68D1E90121206800F055FD206881682E
:1018700041F0770109E0CB68D1E90121206800F04F
:101880004AFD2068816841F48041816011E0CA68A6
:101890004968206800F051FD5021206807E016E0FB
:1018A000CA684968206800F085FD6021206800F062
:1018B0003CFD84F83D50002084F83C0070BDCA68AF
:1018C0004968206800F039FD40212068EFE7226870
:1018D00001461046EBE7000070B50446007F012882
:1018E0002AD11F4D287840B3012825D10021204658
:1018F00000F02CFAA860216800264E626968401A40
:10190000E86001F09FFA174A174B01F0AFFA721E18
:1019100001F0A9FF01F052FA68802E702068016A78
:1019200021F00A0101622068016A01620F48006823
:10193000C16821F00201C16070BD0021204600F0A5
:1019400005FA6860012028702068016A21F00A0108
:1019500001622068016A41F00201016270BD00006D
:10196000000000209CC420B07268A13FE00100206C
:101970002DE9F041054690F83C000C46012836D090
:10198000012085F83C008AB3042A42D02868082A3E
:1019900051D0D4E90023E168066A26F48056066235
:1019A000C669076A26F4407646EA03234FF6FF76B7
:1019B00006EA013123F4704319434FF4005627F42B
:1019C000005306EA02321A43C16102622868C16903
:1019D00021F44061C1612868C169A26841EA02211D
:1019E000C161002085F83C00BDE8F08101E00220E3
:1019F000FAE7D4E90012E368286800F0AFFC286831
:101A0000816921F00C01816128688169A268114314
:101A10000FE0D4E90012E368286800F0DDFC2868D4
:101A2000816921F44061816128688169A26841EA85
:101A300002218161D5E7D4E90027267B016A21F4E0
:101A400080710162C169036A21F00301394321F009
:101A5000F00731074FF4007647EA116123F4007371
:101A600006EA02221A43C16102622868C16921F0B4
:101A70000C01C1612868C169A2681143B0E710B5C3
:101A8000040003D094F83D0010B107E0012010BD20
:101A9000002084F83C00204600F01EF8022084F864
:101AA0003D00211D206800F0F3FB012084F8460072
:101AB00084F83E0084F83F0084F8400084F8410038
:101AC00084F8420084F8430084F8440084F8450018
:101AD00084F83D00002010BD7047000010B504469A
:101AE00051B104290DD0082910D094F8410094F880
:101AF0004520012811D10EE094F83E0094F84220D0
:101B0000F7E794F83F0094F84320F2E794F8400098
:101B100094F84420EDE7012A01D0012010BD0220F5
:101B200051B1042911D0082918D084F8410084F853
:101B300045000C291BD136E084F83E0084F84200B1
:101B40002068C26842F0020210E084F83F0084F886
:101B500043002068C26842F0040207E084F84000B5
:101B600084F844002068C26842F00802C260012282
:101B7000206800F0C3FB0E492068884208D0B0F10D
:101B8000804F05D00B49884202D00B49884204D1CE
:101B9000816801F00701062903D0016841F00101C5
:101BA0000160002010BD2068C26842F01002DDE72D
:101BB000002C0140000400400008004070B50446BD
:101BC000006801694FF00005C943890715D4C16851
:101BD000C943890711D4E91E0161012020772068DB
:101BE00080698007204602D0FFF776FE04E000F00F
:101BF00098F8204600F096F8257720680169C943D7
:101C0000490717D4C168C943490713D46FF00401C9
:101C10000161022020772068806910F4407F20460F
:101C200002D0FFF759FE04E000F07BF8204600F0F8
:101C300079F8257720680169C943090716D4C16876
:101C4000C943090712D46FF008010161042020770D
:101C50002068C0698007204602D0FFF73DFE04E0FF
:101C600000F05FF8204600F05DF8257720680169F4
:101C7000C943C90617D4C168C943C90613D46FF054
:101C800010010161082020772068C06910F4407FAE
:101C9000204602D0FFF720FE04E000F042F8204684
:101CA00000F040F8257720680169C943C90708D1C9
:101CB000C168C943C90704D1891E0161204600F0EB
:101CC00033F820680169C943090609D4C168C943CA
:101CD000090605D46FF0800101612046FFF7BCFCC6
:101CE00020680169C943490609D4C168C943490646
:101CF00005D46FF040010161204600F03CF82068F7
:101D00000169C94389060BD4C168C943890607D450
:101D10006FF0200101612046BDE87040FFF79DBCD7
:101D200070BD70477047000010B50749006809682A
:101D3000884207D100F0FCFC00F02AFCBDE810400E
:101D400000F0BCBD10BD00002802002002460020AB
:101D500041B1042909D008290AD00C2901D1106801
:101D6000006C70471068406B70471068806B70475C
:101D70001068C06B7047704770B501220B4D54025C
:101D800021462846FEF770FF0A2000F0E5FB0022FE
:101D900021462846FEF768FF05480068C16841F003
:101DA0000201C1600348408870BD00000008014086
:101DB000E001002000000020FEE70000FEB5002446
:101DC000254800940194234902940160891581609B
:101DD00004730475052505614FF460214460C161F9
:101DE000FEF79AFB08B1FEF713FB0126CDE900468A
:101DF000694619480294FEF70DFB08B1FEF708FB8F
:101E00000224CDE9006469461348FEF703FB08B1DC
:101E1000FEF7FEFA0094032469460F480194FEF78A
:101E2000F9FA08B1FEF7F4FA0094042469460A4866
:101E30000194FEF7EFFA08B1FEF7EAFA69460648A0
:101E4000CDE90045FEF7E6FA002801D0FEF7E0FAFA
:101E5000FEBD00000024014014010020094808B51F
:101E6000416941F0010141614069002200F0010037
:101E7000009011460B20FEF769FFBDE808400B20DB
:101E8000FEF756BF0010024070B586B00024184817
:101E90000094019402940394816941F020018161CE
:101EA000816901F020010491816941F0040181619F
:101EB000816901F004010491816941F008018161A7
:101EC00080690C4E00F008004FF402450490002297
:101ED00029463046FEF7C8FE01200095CDE90104F1
:101EE0000220039069463046FEF7CEFD06B070BD75
:101EF0000010024000080140104810B50E49016072
:101F00004FF48271416000214FF40062C0E9021277
:101F100092100161C0E905120822C0E9072141625F
:101F200081620A21C162FFF787FA002803D0BDE869
:101F30001040FEF76DBA10BD00300140880100204E
:101F400010B58AB00024234804940594069407949D
:101F5000089409940094019402941D49039401602B
:101F60004721C0E901144FF6FF71C0E90314446131
:101F70008461FFF7A7FB08B1FEF74AFA4FF48050DF
:101F8000049004A91348FFF73BFC08B1FEF740FAA0
:101F90001048FFF774FD08B1FEF73AFA089408A953
:101FA0000C480994FFF75AFB08B1FEF731FA0120FB
:101FB000CDE9004002940022694606480394FFF7E9
:101FC000D7FC002801D0FEF723FA0AB010BD0000AC
:101FD000002C0140E001002010B586B00024174815
:101FE000009401940294039404944FF0804105946A
:101FF000016040F2CF21C0E9011440F2E731C0E9AD
:1020000003148461FFF75EFB08B1FEF701FA4FF499
:102010008050009069460948FFF7F2FB08B1FEF7CF
:10202000F7F9049404A905480594FFF717FB002865
:1020300001D0FEF7EDF906B010BD00002802002027
:10204000FEE7FEE7704700000148FFF785B9000092
:102050008801002038B504461C4845F6C051006888
:10206000B0FBF1F0642148430090FEF703FE024606
:1020700020680099A1B1491E009181688907F8D5AF
:10208000416821F0A00141606421204600F028F859
:1020900018B1606D40F020006065A06828B108E0CC
:1020A000616D41F020016165EAE72068C1688068E0
:1020B0000090012084F85100606D0028204602D075
:1020C000FFF748F938BDFFF7A3FA38BD8C000020B0
:1020D00010B5406A0021C187C186FFF73BF910BDEA
:1020E00038B50B46009204460022802100F028F803
:1020F000002804D0606D40F020006065032038BDEA
:10210000016B02680988D160016B891C0163C18E73
:10211000491EC186C18E002901D1FFF79BBF7047C0
:10212000016B026809781173016B491C0163C18E50
:10213000491EC186C18E002901D1FFF78BBF7047B0
:102140002DE9F8431E46914688460446089DFEF751
:1021500091FD401B351AFEF78DFD074625480068A6
:10216000C0F3CB30684338E0701C37D0FEF782FDF7
:10217000C01BA84203D215B1009860B32CE02068C0
:10218000416821F0E00141606068B0F5827F0BD1C9
:10219000A068B0F5004F02D0B0F5806F04D1206880
:1021A000016821F040010160A06AB0F5005F09D12B
:1021B0002068016821F4005101602068016841F441
:1021C00000510160012084F85100002084F8500083
:1021D0000320BDE8F8830025401E00902068816838
:1021E00038EA010004D000214945BDD10020F0E7C4
:1021F0000121F9E78C0000207047FEF741BD30B5A2
:1022000093B028216846FDF7DFFF14210AA8FDF7E7
:10221000DBFF002501200F95109511950104129503
:102220008DE8230004904FF4E010CDE9081002245B
:1022300007946846FEF7FEFE08B172B6FEE70AA9EB
:102240000F2081E831004FF48060CDE90D050221B7
:102250000AA8FEF723FE08B172B6FEE74FF400406D
:1022600011900F940FA8FEF7A3FD002801D072B6BD
:10227000FEE713B030BD70470148FFF79FBC000078
:10228000E00100200148FFF799BC0000280200206F
:10229000F0B50268164B174C174D4FF08047984227
:1022A00005D0B84203D0A04201D0A84203D122F009
:1022B00070064A683243984205D0B84203D0A04223
:1022C00001D0A84203D122F44074CA6822434C6969
:1022D00022F08002224302608A68C2620A68826237
:1022E000984201D10969016301214161F0BD0000FB
:1022F000002C0140000400400008004010B501F02F
:102300001F030121046A99408C430462016A9A40C8
:102310001143016210BD10B5846842EA032224F41F
:102320007F440A432243826010BD826822F070021B
:102330000A4342F007018160704710B5036A046ADE
:1023400024F001040462846924F0F00444EA0214D5
:1023500023F00A020A438461026210BD70B5046A68
:1023600024F0010404628469056A0F4EB04208D06B
:10237000B0F1804F05D00D4EB04202D00C4EB042AD
:1023800003D124F00304144301E044F001041A07CC
:1023900024F0F00444EA126225F00A0301F00A0175
:1023A00019438261016270BD002C014000040040AD
:1023B0000008004010B5036A23F01003036283692C
:1023C000046A23F4704343EA023224F0A00343EA90
:1023D00001118261016210BD30B5046A24F010045D
:1023E00004628469056A24F4407444EA022222F4F7
:1023F00070444FF6FF7202EA03322243A02425F014
:10240000A00304EA011119438261016230BD00009A
:1024100010B5FFF795FDFFF7DFFD00210448FFF73A
:102420005DFB0348BDE810404830FFF7BDB9000030
:10243000E0010020FEE70907090E002804DB00F197
:10244000E02080F80014704700F00F0000F1E02059
:1024500080F8141D704700002DE9F0473A4C256CB8
:10246000E563E66929463046266400F013FF616A99
:10247000884601F085F8616C00F00CFF014660644D
:10248000E06A01F07DF807462946304601F044F93C
:10249000216B01F075F8414600F064FF05463146B6
:1024A000A06A01F06DF8294600F0F4FE394600F00C
:1024B000F1FEA065616B01F063F805460121206A19
:1024C00001F0FFF98046294601F026F94FF0FF3769
:1024D000394601F0F6F90646A0642946404600F068
:1024E000D9FE394601F0EDF9DFF860800546E06479
:1024F0004146304601F044F8012101F0E2F9A16BB8
:10250000894600F02FFF00F099FE114E114F324620
:102510003B4600F0FBFA00F017FA206541462846DA
:1025200001F02EF8012101F0CCF9494600F01AFF24
:1025300000F084FE32463B4600F0E8FA00F004FA70
:102540006065BDE8F08700001000002000007042C8
:102550001F85EB51B81E1940044900220B685A62CE
:1025600009684A6A8242FCD370470000E0010020FB
:10257000FEF78EFBFFF743FEFFF786FCFFF76EFCCE
:10258000FFF71CFCFFF744FFFFF7B6FCFEE7000077
:102590002DE9F047DFF890810026032798F807001F
:1025A0004FF0020A012408F1640900BB494699F87A
:1025B00000504B78CA780979012D01D0012B03D145
:1025C000012A03D0012901D04DB10EE098F8050091
:1025D00010B188F804A00AE088F8044007E023B9A5
:1025E00099F8020008B902B909B388F804604E4DA1
:1025F00098F804006035E8B101281ED002286DD09B
:10260000032865D105F1090147480A780078012AB5
:1026100077D0454A097953789278012900D0EBB3F5
:10262000012B6ED0012974D0012A72D078E088F88D
:102630000470DCE700F01AF972E088F80740B8F897
:1026400010006E2802D8401CA8F8100080B20A289A
:1026500000D2EF70A0F10A013C2919D20621B0FB8B
:10266000F1F201FB1200EC7004280AD1FFF784FBA1
:1026700088F803002D4BB8F812209854521CA8F883
:10268000122098F803103D39272901D288F8064016
:10269000B8F810104046A1F1460200E02DE00A2AE9
:1026A00000D2EF70502913D38179012902D099F813
:1026B000011009E099F800204946012A06D1CA789C
:1026C000012A07D099F80410012903D085F803A046
:1026D000BDE8F087447188F80760F9E712491348AC
:1026E00098F806200A38C989012A03D0C1800181DF
:1026F000A0E706E0018041809CE7002A94D1EF70BA
:10270000E6E700F029FFC8F81C0088F8014007E060
:10271000FFE7404200F008FFC8F81C0088F80240BC
:10272000FFF79AFEEE70D3E710000020AE00002005
:102730002DE9F041404C0026052266813F49404882
:10274000FDF7C0FF26723D4BA28904F1690703F132
:102750000A054FF00108791F207A11F800C007F828
:1027600000C033F810C025F810C0944502D901F814
:10277000008000E00E54401CC0B220720528EBD34C
:102780002888A0F57C7000F046FB2E4A2E4B00F006
:102790006DFB06460F46E08900F054FB8846044670
:1027A00032463B4600F002F900F008FB234E143697
:1027B00030806888A0F27F6000F02DFB234A244B14
:1027C00000F054FB2246434600F0F0F800F0F6FA21
:1027D0007080A888A0F29A4000F01DFB1D4A1E4B95
:1027E00000F044FB2246434600F0E0F800F0E6FA31
:1027F000B080E888A0F2DE3000F00DFB174A184BDD
:1028000000F034FB2246434600F0D0F800F0D6FA40
:10281000F0802889A0F2B64000F0FDFA114A124B70
:1028200000F024FB2246434600F0C0F800F0C6FA50
:102830003081BDE8F08100001000002090000020F1
:10284000140100200612143FC6DCED3F8B6CE7FB41
:10285000A9F1F23FB003E78C28EDEF3FBB270F0B48
:10286000B5A6ED3F9F3C2CD49AE6EF3F70B5114CD6
:1028700000206070A0701048028845888688C18852
:1028800053190E441E440389691AF018D21A80B2F3
:1028900001EB4201608101EB011191FBF0F000F0CE
:1028A00043FEE065A16900F037FF616900F05AFD61
:1028B000E06170BD10000020A400002070B51C4C29
:1028C0001C480021226D1C4D824201DD206502E082
:1028D000AA4200D32165626D824201DD606502E09B
:1028E000AA4200D36165206D00F0FEFD104E6036F7
:1028F0003070606D00F0F8FD7070E069A84202D39E
:1029000080F0004002E00D4900F0C4FC00F0ECFD56
:10291000B07000224FF400410948FEF7A5F9BDE868
:1029200070400349042260310648FEF727BE0000CC
:102930001000002000007F43000080800000C8429B
:10294000000801408801002021F00042A2F16052FD
:10295000B2F5801F01F0004328BFD2F17F6C0BD984
:102960005FEA001C43EAC20242EB507018BF704796
:1029700028BF20F001007047B2F5801FBCBF184689
:1029800070474FEA410C1CF5001F02D2084600F0C8
:10299000BEBE70B500F014FB00000089FFF7F6BF63
:1029A0004FF00040A0F580007047000010B591EA9C
:1029B000030F48BF83F0004300F15E83841A71EB7C
:1029C000030C05D2121943EB0C03001B61EB0C0145
:1029D000DFF824E14FEA1154A4EB135C1EEA430F25
:1029E00018BF9EEA445F73D023EA0E03DCF1200E89
:1029F00021EA045143F4801332D322FA0CFE10EB87
:102A00000E0023FA0CFE41EB0E01CCF1200E03FA6E
:102A10000EFE10EB0E0051F10001B1F5801FCCF15C
:102A2000200E32D201EB045112FA0EF2BDE8104032
:102A300058BF7047401C38BF5FEA420218BF70475A
:102A4000002814BF20F0010041F100014FEA4103CA
:102A500013F5001F38BF7047A1F1C04100F0FEBA66
:102A6000012A43EB0302ACF1200CDCF11F0E32BF54
:102A70004FF0000E23FA0CF310EB030041EB04516E
:102A8000B4EB115FD0D0A1EB045101F580114908DE
:102A90005FEA300001EB04510ED350F1000038BF63
:102AA00012FA0EFE08D1BDE81040C9E7401C38BF3D
:102AB0005FEA4202CAD1C3E7BDE810404FEA4103D2
:102AC00013F5001F38BF7047A1F1C04100F0C6BA2E
:102AD0009EEA445F08D011EA5E0FBDE8104004BFD3
:102AE00001F0004100207047BDE8104070B500F0D3
:102AF00067FA00BF64FBBE3E0000E0FF02494FF0F2
:102B0000000000F07EBE00BF0000F87F2DE9C0414C
:102B100030B4DFF8A0C23CEA111418BF3CEA131429
:102B200000F0EC8081EA03051CEA111444EAD57434
:102B300018BF1CEA131500F0C780A4EB05044FF082
:102B4000004545EAC12145EAC32341EA505143EA21
:102B5000525304F17F74994204F500344FEAC020C7
:102B60004FEAC22208BF904200F09C804FEA1365F2
:102B70000FF24016765D4FEA134506FB05F7C7F1E5
:102B8000807706FB07F74FEAD737A7FB0368764243
:102B9000C8F58038A7FB06CE38BFA8F1010807FBAF
:102BA00008E64FF0000EA6FB028CE6FB03CEDCF13C
:102BB000000CCEF1004E38BFAEF1010EA6FB0C5852
:102BC0004FF000074FF00005E6FB0E87A1FB08C69B
:102BD000A0FB07CE16EB0E0645F10005E1FB0765ED
:102BE00015F1E04E7EBFA4F580345FEA46066D41E4
:102BF00016F1800745F100054FEA17274FEA0666F0
:102C000047EA0567A6F1DE46B6F1805F4FEA152573
:102C10001FD9384624F0010C05EBC471BCF1FE6FDE
:102C200001EB0C1102D8F0BCBDE8008124425CBF6E
:102C300001F5801E9EEAC47F02D4F0BCBDE800818D
:102C4000244238D4F0BCA1F1C041BDE8004100F0FD
:102C500005BA4FEAD22242EA43524FEAD323A7FBF6
:102C600002864FEAD02040EA415007FB03661EEA85
:102C70000E0F4FEAD12105FB026658BFA6EB0056A6
:102C8000B6EB00564FEA520E4EEAC37E18EB0E0E1C
:102C900056EB530EBDD518EB02085E417F1C55F173
:102CA0000005B6E74FF480154FF000074FF000061F
:102CB0004FF00008ADE7F0BC4FF0000001F1C0415B
:102CC00001F00041BDE8008111EA0C1F0CEA131568
:102CD00000D00CE013EA0C1F00F025804FF000003C
:102CE000F0BC81EA030101F00041BDE80081F0BCC5
:102CF000BDE8004181EA030100F0B0B9F0BCBDE8D5
:102D0000004170B500F05CF9097EFC3E00F007B8A8
:102D100081EA03014FF0000001F00041704781EAB1
:102D2000030100F09BB9F0BCBDE800414FF000008A
:102D300021497047FFFDFBF9F7F5F4F2F0EEEDEBFA
:102D4000E9E8E6E4E3E1E0DEDDDBDAD8D7D5D4D3A9
:102D5000D1D0CFCDCCCBCAC8C7C6C5C4C2C1C0BFF5
:102D6000BEBDBCBBBAB9B8B7B6B5B4B3B2B1B0AFFB
:102D7000AEADACABAAA9A8A8A7A6A5A4A3A3A2A1DF
:102D8000A09F9F9E9D9C9C9B9A999998979796959A
:102D900095949393929191908F8F8E8E8D8C8C8B36
:102DA0008B8A8989888887878685858484838382BE
:102DB000828181800000FF070000F87F4FEA1153F5
:102DC000A3F58063D3F11E03A8BFD3F1200C08DB69
:102DD0004FF0004242EAC12252EA505232FA03F066
:102DE000704709420BD4102BC4BF0020704703F575
:102DF000787CBCF1FF3F05D04FF0FF3070474FF0BB
:102E00000000704770B500F0DBF800BF49922480E5
:102E100000207047F0E710F0004248BF4042B0FA8F
:102E200080F310FA03F10AD0C3F11D0303F58063A8
:102E30004FEA415002EB035202EBD12170474FF0B1
:102E400000007047B0FA80F310FA03F10AD0C3F122
:102E50001D0303F580634FEA41504FEA035202EB32
:102E6000D12170474FF0000070470000DFF848C1E3
:102E700070B51CEA111E1EBF1CEA13159EEA0C0F4A
:102E800095EA0C0F00F06F8081EA030423EA4C13EB
:102E90004EEAD47E21EA4C1141F4801143F48013B0
:102EA000AE44A1FB024CA0FB0365AEF17F7E361958
:102EB00055EB0C05A1FB034C4CF10003A0FB021CDD
:102EC00016EB0C06654153F10003094218BF46F0AA
:102ED000010613F4007F0BD14FEA03314FEA0530AE
:102EE000340341EA155140EA16506FF003020AE03C
:102EF0004FEAC3214FEAC520F40241EA555140EAA6
:102F000056506FF0020202EB2E4201EB025585EAA9
:102F1000CE710AD05FEA440C18BF24F0004450F18F
:102F2000000041F1000120EAD47040F2FE7C6245CD
:102F300000D270BDA84214BF4FF080444FF040440F
:102F4000002E08BF0024BEF1806FA8BFA1F1C041D0
:102F5000BDE8704080F282804FF0000001F1C04176
:102F600001F0004170479EEA0C0F0CEA131518BFE0
:102F700095EA0C0F06D04FF0000081EA030E0EF028
:102F8000004170BD00F01CF88900013E00F007B858
:102F900000F009B84FEA430C5FEA5C5C08D081EAB4
:102FA000030100F05BB84FEA410C5FEA5C5CF6D1CC
:102FB0004FF00000014970470000FF070000F87F54
:102FC0000EF1020E2EF0030E5EF8046B364205D4AD
:102FD000012A43EB030515F5001F12D8012841EB28
:102FE000010C1CF5001F0CD80ED14FEAD17C15F551
:102FF000001F0CEB4C0C0CF1020C08BF4CEBD37C0B
:1030000004E04FF0080C01E04FEAD37C0CEB4C05D8
:1030100026FA05F606F00706B6F1040C06D20EEB0A
:10302000860CBDE870404CF0010C6047DFE80CF006
:10303000090B02024FF000414FF00000A1F5002102
:1030400070BD19461046012851EB010418BFD4F594
:10305000001484BF002001F0004170BD0808A0F5F5
:1030600000114FEA3101704710B591EA030F48BFD4
:1030700083F000433FF5A2AC841A71EB030C07D236
:1030800012198CF0004C43EB0C03001B61EB0C019C
:10309000DFF8A4E14FEA1154A4EB135C1EEA430FDE
:1030A00018BF9EEA445F00F0B08023EA6E035242EC
:1030B00021EA0451C3EB6E0338BF5B1EDCF1200E26
:1030C00025D322FA0CFE10EB0E0043FA0CFE41EB66
:1030D0000E01CCF1200E03FA0EFE10EB0E0051F1A2
:1030E0000001CCF1200E29D412FA0EF201EB0451AA
:1030F000BDE8104058BF7047401C1CBFB2F1004FE4
:10310000704700280CBF491C20F00100704712EBEB
:10311000020E43EB030218BF4FF0010E4EEA4202CB
:10312000ACF1200CDCF11E0E54D943FA0CFE10EB6E
:103130000E0051F1FF31CCF11E0ED5D50EF1010E6E
:1031400012FA0EFE404141EB010101EB445C5FEAE3
:103150005C5C10D910EBDE7001EB045138BFBEF19E
:10316000004FBDE8104018BF704700280CBF491C35
:1031700020F00100704730D24FEAD42C11F5001135
:1031800024F400641BD0B1FA81F20B3AA41AA41EF5
:10319000D2F12003914030FA03F31943904001EB40
:1031A000CC71002C01EB0451BDE81040A8BF704762
:1031B00001F1C0414FF0000001F000417047B0FA4A
:1031C00080F310FA03F100D110BDE41A173C480552
:1031D000C90AE4E701EB045110BD491001EB0451A9
:1031E000BDE810404FEA300002E04FF000017047A8
:1031F0004A0008BF0042F8D0B2F5001F28BF704750
:1032000001F000414FF0000070479EEA445F07D094
:1032100011EA5E0FBDE8104004BF00210020704796
:10322000BDE8104070B5FFF7CBFE00BF40DFF63EB3
:1032300083F00041104670470000E0FF43004FEA72
:10324000D30C4FEA3C0C43401FBF40070CF16051C8
:1032500013F0FE4F70471CF0006F03D100200CF0FC
:10326000004170470CF0004343EA507010B540EA4B
:10327000CC0000F006FA00BF000000924FEA000107
:10328000FFF7ECBE4FF000414FF00000A1F5002128
:103290007047000090EA010F48BF81F0004100F143
:1032A0004282421A3CBF801A89184FEAD0524FF02E
:1032B0007F4C1CEA410FA2EBD15318BF9CEA026F6E
:1032C00000F03B804FF0004C4CEA00204CEA01211A
:1032D00021FA03FC10EB0C0C1ED202F1FF325FEA64
:1032E0001C2040EBC25038BF70471CF07F0F4FEAE4
:1032F000400C18BFBCF17F4F38BF7047C3F12003AB
:10330000994008BF20F00100BCF17F4F38BF7047E3
:10331000A0F1C04000F0FBB94FEA3C00000A40EBCE
:10332000C25028BF1CF0FF0F4FEA400CE6D018BF78
:10333000BCF17F4F38BF7047EAE79CEA026F05D0C7
:1033400010EA5C0F08BF00F00040704710B500F0B5
:1033500098F900BF64FBBE3E014800F052BA00BFBE
:103360000000C07F4FF47F0C1CEAD0121EBF1CEA85
:10337000D11392EA0C0F93EA0C0F00F0858090EACB
:10338000010F48BF42F4807240F4000C41F4000089
:103390002CF07F4120F07F4000B58142A2EB030278
:1033A0000FF2081CACEB504EC0F100009EF800E09C
:1033B0004FEA4E0E00FB0EFC38BF49004FEA2C1CB2
:1033C00002F5FA020CFB0EF34FEACE1E4FEA112C67
:1033D0004FEAC1210EEB635E42EB22420EFB0CFC76
:1033E0004FEA1C5300FB03114FEA112C4FEA013145
:1033F0000EFB0CFC4FEADC4C00FB0C11C14228BF59
:1034000009184CEB03335DF804EB10EB410143EB7F
:10341000C250B2F57C0F38BF704729D512F0F00FBB
:103420001CBF00F1C04000F0004070470081828363
:103430008485868788898B8C8D8E8F9192939596C3
:1034400097999A9C9D9FA0A2A3A5A7A8AAACAEB04D
:10345000B2B3B5B7B9BCBEC0C2C5C7C9CCCED1D452
:10346000D7D9DCDFE2E6E9ECF0F3F7FAFE00000082
:103470004FEA400C0CF1807CBCF17E4F28BF7047B6
:10348000B0F1C04000F043B990EA010F0CEAD1134B
:1034900048BF42F48072624538BF634507D213F4D7
:1034A0007F0F16D080EA010000F00040704710B591
:1034B00000F0E7F8097EFC3E00F005B880EA010064
:1034C00000F00040704780EA010000F0004000F08A
:1034D0001EB912F47F0F04BF0248704780EA010052
:1034E00000F015B90000C07FC10DD1F19E0206DBCE
:1034F0004FEA002343F0004323FA02F070470042F2
:1035000007D54FEA4001B1F1FE4F02D24FF0000063
:10351000704710B500F0B5F849922480002070473C
:103520006FEA20007047000010F0004148BF4042A1
:10353000B0FA80F310FA03F2C3F19D030BD051EA05
:10354000C35101EB1220530638BF704700F1010050
:1035500008BF20F001007047B0FA80F310FA03F2C0
:10356000C3F19D030AD0D90501EB1220530638BFE1
:10357000704700F1010008BF20F001007047000013
:103580004FF47F0C1CEAD0121EBF1CEAD11392EA42
:103590000C0F93EA0C0F00F0478090EA010F48BF30
:1035A00042F480724FF0004C4CEA00204CEA0121BA
:1035B00002EB0302A0FB0113A2F50002002918BFD1
:1035C00043F001035B0028BF4FEA330342EB224282
:1035D0005FEA132C4CEBC2502EBFBCEB436FB2F52D
:1035E0007C0F70474FEA036CBCF1004F08BF20F01E
:1035F0000100B2F57C0F38BF70470BD582F0FF0297
:1036000012F5803FC8BF704700F1C040D8BF00F03E
:103610000040704700F5000C5FEA4C0C48BF704753
:10362000B0F1C04000F073B890EA010F0CEAD1137A
:1036300048BF42F48072624538BF634504D280EAD5
:10364000010000F00040704710B500F01AF800BF0C
:103650008900013E00F007B800F009B85FEA410CAC
:103660005FEA1C6C08D080EA010000F050B85FEA05
:10367000400C5FEA1C6CF6D14FF00040A0F58000D2
:1036800070470EF1020E2EF0030E5EF8044B24423A
:1036900004D44FEA4102B2F17F4F11D84FEA400300
:1036A000B3F17F4F0CD80ED14FEAD07CB2F17F4FEF
:1036B0000CEB4C0C0CF1020C08BF4CEBD17C04E081
:1036C0004FF0080C01E04FEAD17C0CEB4C0324FADC
:1036D00003F404F00704B4F1040C06D20EEB840CDE
:1036E000BDE810404CF0010C6047DFE80CF0070823
:1036F00002024FF00040A0F5800010BD08464200D5
:1037000018BFD2F1807288BF00F0004010BDFF21C9
:1037100041EAD050C005704790EA010F48BF81F0E0
:1037200000413FF5BEAD421A04D882F00042A0EB42
:10373000020011444FEAD0524FF07F4C1CEA410F77
:10374000A2EBD15318BF9CEA026F4AD04FF0004C55
:103750004CEA00204CEA012121FA03FCB0EB0C0CEE
:103760000FD412F0FE0F36D05FEA4C001DD50012C8
:1037700040EBC25038BF70471CF03F0F18BF704776
:103780000BE0A2F101025FEA1C2040EBC25038BFFF
:1037900070471CF07F0F18BF7047C3F1200399409A
:1037A00014BF401E20F00100704780084FEA12232A
:1037B00008BF7047B0FA80FCA2EB0C02CCF1280CD9
:1037C00060FA0CF093EA122F04BF00EBC25070476E
:1037D0004FEAC3707047130A5FEADC1008BF7047F6
:1037E000F6E79CEA026F04D010EA5C0F08BF0020E5
:1037F000704710B5FFF745FF40DFF63E81F000400F
:1038000070470CF00F03092B08BF082000F07F80E1
:103810000A2B0BD0082B18BF704708BF1CF0400FB5
:103820000AD04FF000004FF0000170471CF0400F2D
:1038300018BF4FF0004070471CF0100F08D020F068
:10384000704300F07F4242EAD3014FEA4370704771
:1038500000F0604021F07F4242EA000201F07F4028
:1038600040EA727070474FF0FF0C4CF4E06C1CEAB9
:1038700011531CBF9CEA030C9445C2BFDA4201EB12
:1038800002517047002B0DD0BCF1000F0FD0002A61
:1038900001F00041A4BF41F0E04141F07F614FF0F1
:1038A0000000704701F000414FF00000704750EAFF
:1038B00001334FF09B0C18BF4CF0806C7FF41EA9B5
:1038C00070474FF0FF0212EAD0521CBF92F0FF0384
:1038D0008B42C2BFD14200EBC1507047002A0AD0D0
:1038E000002B0BD0002900F00040A4BF40F0FE40A8
:1038F00040F40000704700F00040704743024FF072
:103900000B0C18BF4CF0806C7FF426AD70471CF494
:10391000801F11D01CF4E02F03D06FEACC31490096
:1039200070474FF04050EFF3008222F0704242EABD
:10393000000282F3008870474FF0000070470000DB
:10394000000000000000010203040607080900004F
:1039500070390008000000209000000028010008D5
:10396000003A0008900000204008000044010008D0
:103970000000E7030000000000000000000000005D
:10398000220000FF0000000000000000B80BB90496
:103990000000000068B3CA3E9CA243BF00000000C4
:1039A0000000C8430AD7233C3B704E3DCDCCCC3DF4
:1039B000B81F7039000043430000AA420000000015
:1039C00000000000000000000000000000000000F7
:1039D00000000000000000000000000000000000E7
:1039E00000000000000000000000000000000000D7
:1039F0000100000010000000000000000024F4009E
:04000005080000ED02
:00000001FF
